:100000000C9439000C94EB000C9406010C945600EF
:100010000C9456000C9456000C9496050C945600C3
:100020000C9456000C9456000C9456000C945600F8
:100030000C9456000C9456000C9456000C945600E8
:100040000C9456000C9456000C9456000C945600D8
:100050000C94560031333A34353A3433003230326E
:10006000302D30352D32320031373400312E302EE4
:10007000300011241FBECFE5D8E0DEBFCDBF10E0B9
:10008000A0E6B0E0E0E7FEE002C005900D92A43BE0
:10009000B107D9F720E0A4EBB0E001C01D92A53D67
:1000A000B207E1F70E9421010C9436070C9400007E
:1000B00080FF02C0DC9A01C0DC9881FF02C0DD9A9B
:1000C00001C0DD9882FF02C0DE9A01C0DE9883FF86
:1000D00002C0DF9A0895DF980895CF93C82FDB9A66
:1000E00082958F700E945800DB98DB9A8C2F0E94BB
:1000F0005800DB9885E88A95F1F70000CF910895C4
:10010000DA980C946D00DA9A0C946D00CF93DF931B
:10011000EC018991882319F00E948300FACFDF91C6
:10012000CF91089590E4699F800D112480680C940C
:10013000800081E00E9480008FE99FE00197F1F745
:1001400000C00000089582E00E9480008FE99FE0D7
:100150000197F1F700C000000895CF93D49AD59A83
:10016000D69AD79AD39AD29A8FE295E70197F1F768
:1001700000C00000DA98DB98C3E0DB9A83E00E94BD
:100180005800DB988FE097E20197F1F700C000007C
:10019000C15099F7DB9A82E00E945800DB988FECFF
:1001A00097E00197F1F700C0000088E20E9480000C
:1001B00088E00E94800081E00E9480008FE99FE03B
:1001C0000197F1F700C0000086E00E9480008CE0FB
:1001D000CF910C9480001F920F920FB60F921124B2
:1001E0008F939F938091B4009091B500839B02C040
:1001F000019601C001979093B5008093B4009F9140
:100200008F910F900FBE0F901F9018951F920F9215
:100210000FB60F9211248F939F938091B400909109
:10022000B500829B02C0019601C001979093B50072
:100230008093B4009F918F910F900FBE0F901F90ED
:100240001895CF93DF93CDB7DEB76A970FB6F894C2
:10025000DEBF0FBECDBFA89A8A988B9882B38C6000
:1002600082BB8BB7806C8BBF85B78E6085BF78945F
:100270000E94AD000E94A3000E94990060E080E00F
:100280000E9492008FE19EE40197F1F700C0000008
:1002900000E010E0E12CF12CC12CD12CB0E3BB2EFE
:1002A00088248394912CC114D10409F0D4C0809186
:1002B000C5009091C600009709F088C098998DC03C
:1002C00088EE9DEF9093C6008093C5008091B400A6
:1002D0009091B500F701EE0FFF1F21E030E02C0FE9
:1002E0003D1FE20FF31F91838083E114F10469F451
:1002F0004AE0BE016D5E7F4F0E94010761E080E031
:100300000E949200CE01439610C031E0E316F10442
:1003100091F44AE0BE01615F7F4F0E94010761E0F6
:1003200083E00E949200CE010F960E948600FFEFAC
:10033000EF1AFF0A52C0E2E0EE16F10471F44AE04F
:10034000BE01655F7F4F0E94010761E086E00E9469
:100350009200CE010B960E94860089819A81449773
:10036000F9F48B819C818897D9F48D819E81CC97FB
:10037000B9F461E08AE00E94920080E690E00E9479
:1003800086002FEF39E688E1215030408040E1F7C8
:1003900000C000000E949900CC24C394D12C1DC041
:1003A00061E08AE00E94920085E690E00E9486006B
:1003B0009FEFE9E6F8E19150E040F040E1F700C03E
:1003C00000000E949900E12CF12C07C0989B05C009
:1003D00001969093C6008093C5008091B4009091DF
:1003E000B5008436910530F083E690E09093B50037
:1003F0008093B4008091B4009091B500892B21F4D2
:100400009092B5008092B40060E080E00E9492007B
:100410004AE0BE01695E7F4F8091B4009091B500C3
:100420000E9401078091B4009091B5000A9730F4C2
:100430008F89888FBF8A80E2898F8A8FCE01479605
:100440000E94860060E082E00E9492008BE690E0CD
:100450000E948600B4C121E0C216D10409F072C125
:1004600060E080E00E9492008BE790E00E948600AE
:1004700080EF87BB8FEC97E00197F1F700C0000099
:100480008FE088BBEFECF7E03197F1F700C0000098
:100490008FE58F83888789878A8761E080E00E9463
:1004A0009200CE0107960E94860061E084E00E94DF
:1004B00092008CE690E00E94860081E3A82E96E3ED
:1004C000792E25E3622E34E3532E49E3442E58E37C
:1004D000352E67E3262E86B3803FE9F38FE097E25F
:1004E0000197F1F700C0000026B397B3909597BB32
:1004F000EFECF7E03197F1F700C0000098B390956A
:1005000098BB8FEC97E00197F1F700C0000086B32D
:10051000822B8E3781F4043011050CF0BCC061E0F1
:1005200080E00E949200E7E0F0E0EC0FFD1FE00F9A
:10053000F11F2082A2C08E3B81F4043011050CF023
:10054000AAC061E080E00E949200E7E0F0E0EC0FDA
:10055000FD1FE00FF11F308290C08E3D81F404300A
:1005600011050CF098C061E080E00E949200E7E085
:10057000F0E0EC0FFD1FE00FF11F40827EC08D37D1
:1005800081F4043011050CF086C061E080E00E9427
:100590009200E7E0F0E0EC0FFD1FE00FF11F50824A
:1005A0006CC08D3B81F4043011050CF074C061E027
:1005B00080E00E949200E7E0F0E0EC0FFD1FE00F0A
:1005C000F11F60825AC08D3D81F4043011050CF09A
:1005D00062C061E080E00E949200E7E0F0E0EC0F92
:1005E000FD1FE00FF11F708248C08B3781F404308B
:1005F00011050CF050C061E080E00E949200E7E03D
:10060000F0E0EC0FFD1FE00FF11FA08236C08B3B26
:1006100089F4043011050CF041C061E080E00E94D3
:100620009200E7E0F0E0EC0FFD1FE00FF11F92E316
:10063000908323C08B3D81F4043011057CF561E08B
:1006400080E00E949200E7E0F0E0EC0FFD1FE00F79
:10065000F11F23E3208311C0873BE9F40430110527
:10066000ECF461E080E00E949200E7E0F0E0EC0F43
:10067000FD1FE00FF11F30E33083CE0107960E948B
:10068000860061E084E00E9492008CE690E00E9487
:1006900086000F5F1F4F04301105DCF18F8181331D
:1006A00009F588858933F1F489858933D9F48A85F8
:1006B0008533C1F461E08AE00E94920080E690E018
:1006C0000E9486008FEF99E6E8E181509040E0407B
:1006D000E1F700C00000FFEFCF1ADF0A0E94990087
:1006E00080E018C061E08AE00E94920085E690E018
:1006F0000E9486002FEF39E688E12150304080408B
:10070000E1F700C000000E94990080E000E010E0E6
:1007100001C081E097B3909597BBEFECF7E031977C
:10072000F1F700C0000098B3909598BBFFEF2EE55D
:1007300035E0F15020403040E1F700C0000081304A
:10074000F1F5C9CE82E0C816D104C9F560E080E0B9
:100750000E94920084E890E00E948600A99A08EE28
:100760001DEF8091C3009091C400009701F5999905
:10077000F8CF1093C6000093C50061E08AE00E94A4
:10078000920080E690E00E9486009FEFE9E6F8E1A3
:100790009150E040F040E1F700C0000060E080E0F0
:1007A0000E94920083E990E00E948600DACF999B34
:1007B000D8CF01969093C4008093C300D2CF8FEC22
:1007C00097E00197F1F700C000006DCDEF92FF9226
:1007D0000F931F93CF93DF93E0E48091C800809143
:1007E000C9008091CA008091CB008091CC0080919B
:1007F000CD008091CE008091CF00E090C800F090B5
:10080000C9001091CA00D091CB00C091CC00B0912A
:10081000CD00A091CE00F091CF002091C800309182
:10082000C9004091CA005091CB006091CC007091FA
:10083000CD008091CE009091CF0001E00E94BE06D5
:100840002093C8003093C9004093CA005093CB0056
:100850006093CC007093CD008093CE009093CF0036
:100860009701412F5D2F6C2F7B2F8A2F9F2FA0E0A8
:100870000E94F5060CF58091C8007091C900609146
:10088000CA005091CB004091CC003091CD00209116
:10089000CE009091CF0081608093C8007093C90012
:1008A0006093CA005093CB004093CC003093CD00AE
:1008B0002093CE009093CF00E15009F08ECF80912D
:1008C000C8008091C9008091CA008091CB008091BE
:1008D000CC008091CD008091CE008091CF0080E04F
:1008E000DF91CF911F910F91FF90EF9008958F921C
:1008F0009F92AF92BF92CF92DF92EF92FF920F93AF
:100900001F93CF93DF93C0E0D0E0B0E011E0BC2EA6
:10091000D090C800E090C900F090CA00A091CB0030
:10092000F091CC00E091CD00A090CE00C090CF001F
:1009300020EC33E040E050E060E070E080E090E0E8
:100940000C2F0E94BE062D213E214F215A236F23DA
:100950007E238A219C21FE0136960E2F0E94D90605
:10096000A22F203130F4E22FF0E0ED55FF4FA080B0
:1009700002C082E0A82EC090C800D090C900E090CC
:10098000CA00F090CB00F091CC00E091CD008090B7
:10099000CE009090CF00259620E230E040E050E07D
:1009A00060E070E080E090E00B2D0E94BE062C21FC
:1009B0003D214E215F216F237E23882199210C2F19
:1009C0000E94D906A21210E0EB2FE695F0E0E0536A
:1009D000FF4FB0FD02C0A08307C0808190E1A99FB6
:1009E00090011124282B2083BF5FC233D10509F069
:1009F0008ECF812FDF91CF911F910F91FF90EF90BC
:100A0000DF90CF90BF90AF909F908F9008952F92DE
:100A10003F924F925F926F927F928F929F92AF928E
:100A2000BF92CF92DF92EF92FF920F931F93CF93DB
:100A3000DF93E0E0F0E080E8E82EF12CB1E093E015
:100A4000C92ED12C24E0A22EB12CB7010E2E02C04B
:100A5000759567950A94E2F708E010E00E2E02C043
:100A6000159507950A94E2F720E030E0A0E0A9018F
:100A700040535F4FEA01888190E086239723892BBA
:100A800009F0AB27EA01888190E080239123892B2C
:100A900009F0AB272F5F3F4F2530310541F73090EC
:100AA000C8004090C9007090CA008090CB00909020
:100AB000CC002090CD005090CE006090CF0022E07E
:100AC00030E040E050E060E070E080E090E08601DF
:100AD0000E1B1F0B0E94BE062321342147215821E3
:100AE000692172218521962185010E1B1F0B0E9411
:100AF000D906A21307C03196E430F10509F0A5CF5D
:100B000081E001C080E0DF91CF911F910F91FF90B4
:100B1000EF90DF90CF90BF90AF909F908F907F909D
:100B20006F905F904F903F902F9008951F920F927B
:100B30000FB60F9211240F932F933F934F935F9310
:100B40006F937F938F939F93AF93BF93EF93FF9395
:100B500086B597B54091C1005091C200805B910964
:100B600026B537B53093C2002093C1003EB520E4CE
:100B700023272EBDE091C000E11115C01092BF00E7
:100B800021E02093BE001092B6001092B7001092A0
:100B9000B8001092B9001092BA001092BB001092E7
:100BA000BC001092BD00841B950B813A21E0920796
:100BB00018F01092C00062C0F091BF00813A910518
:100BC00068F5E0FD29C02091B6003091B700409152
:100BD000B8005091B9006091BA007091BB0080914B
:100BE000BC009091BD0001E00E94BE06A091BE0035
:100BF0002A2B2093B6003093B7004093B80050934F
:100C0000B9006093BA007093BB008093BC009093CE
:100C1000BD00FF5FF093BF00EF5F2EC0A091BE004C
:100C200081E0A827A093BE002091B6003091B700C4
:100C30004091B8005091B9006091BA007091BB002A
:100C40008091BC009091BD0001E00E94BE06A22BE5
:100C5000A093B6003093B7004093B8005093B9000A
:100C60006093BA007093BB008093BC009093BD006A
:100C7000FF5FF093BF00EE5FE093C0008091BF0084
:100C8000813408F469C01092C0008091C7008111BE
:100C900063C07091B6006091B7005091B800409168
:100CA000B9003091BA002091BB009091BC008091B6
:100CB000BD007093C8006093C9005093CA00409370
:100CC000CB003093CC002093CD009093CE00809346
:100CD000CF000E94E603882341F00E947704882316
:100CE00021F00E94070581112DC07091C80060910C
:100CF000C9005091CA004091CB003091CC002091A6
:100D0000CD009091CE008091CF0070956095509568
:100D1000409530952095909580957093C80060938C
:100D2000C9005093CA004093CB003093CC0020936D
:100D3000CD009093CE008093CF000E94E6038111F6
:100D400004C080E08093C70007C00E947704882316
:100D5000C1F30E940705F6CFFF91EF91BF91AF91CC
:100D60009F918F917F916F915F914F913F912F91C3
:100D70000F910F900FBE0F901F9018950F93083092
:100D800090F0982F872F762F652F542F432F322FD7
:100D900022270850F4CF220F331F441F551F661F10
:100DA000771F881F991F0A95B2F70F91089597FB37
:100DB00010F8169400080F93083098F00850232F6D
:100DC000342F452F562F672F782F892F902DF4CF52
:100DD0000594979587957795679557954795379596
:100DE00027950A95AAF70F9108950024A7FD00946E
:100DF0002A173005400550056005700580059005EF
:100E00000895BB274A3031F4992322F4BDE290952E
:100E100081959F4F0C940D07BB27FB015527AA27EF
:100E2000880F991FAA1FA41710F0A41B8395505177
:100E3000B9F7A05DAA3308F0A95DA193009779F7EF
:100E4000B111B1931192CB010C942607DC01FC0186
:100E5000672F71917723E1F7329704C07C916D93EE
:100E600070836291AE17BF07C8F30895F894FFCF5F
:100E70004F50454E0057524F4E4700202020202013
:100E800020202020202020202020004B6579626F28
:100E9000617264005061737320524649442063615B
:100EA000726400414C4C204C4F434B53204F5045F3
:100EB0004E210000010100010000010100000100BD
:040EC000010100002C
:00000001FF
