:100000000C9438000C944D000C944D000C944D0051
:100010000C944D000C944D000C944D000C944D002C
:100020000C944D000C944D000C944D000C944D001C
:100030000C944D000C944D000C944D000C944D000C
:100040000C944D000C944D000C944D000C944D00FC
:100050000C944D0031393A32373A33310032303274
:10006000302D30342D3134003100312E302E30001F
:1000700011241FBECFE5D8E0DEBFCDBF10E0A0E663
:10008000B0E0E6EFF1E002C005900D92AE36B107A8
:10009000D9F70E94E2000C94F9000C94000080FF54
:1000A00002C0929A01C0929881FF02C0939A01C047
:1000B000939882FF02C0949A01C0949883FF02C073
:1000C000959A089595980895CF93C82F919A8295FF
:1000D0008F700E944F009198919A8C2F0E944F0030
:1000E000919885E88A95F1F70000CF91089590984E
:1000F0000C946400909A0C946400CF93DF93EC010D
:100100008991882319F00E947A00FACFDF91CF916C
:10011000089590E4699F800D112480680C94770005
:1001200081E00E9477008FE99FE00197F1F700C01E
:100130000000089582E00E9477008FE99FE0019718
:10014000F1F700C000000895CF938A9A8B9A8C9A99
:100150008D9A899A889A8FE295E70197F1F700C006
:10016000000090989198C3E0919A83E00E944F001C
:1001700091988FE097E20197F1F700C00000C1501D
:1001800099F7919A82E00E944F0091988FEC97E046
:100190000197F1F700C0000088E20E94770088E034
:1001A0000E94770081E00E9477008FE99FE001972D
:1001B000F1F700C0000086E00E9477008CE0CF914C
:1001C0000C9477000E94A4000E949A000E94900064
:1001D00060E080E00E94890080E690E00E947D005F
:1001E00061E080E00E94890085E690E00E947D0049
:0601F000FFCFF894FFCFE1
:0E01F600746573740061616161616161000094
:00000001FF
