:100000000C9439000C94EB000C9406010C945600EF
:100010000C9456000C9456000C9456000C94560008
:100020000C9456000C9456000C9456000C945600F8
:100030000C9456000C9456000C9456000C945600E8
:100040000C9456000C9456000C9456000C945600D8
:100050000C94560031323A35373A3534003230326A
:10006000302D30352D303800363300312E302E30E3
:10007000000011241FBECFE5D8E0DEBFCDBF10E0E9
:10008000A0E6B0E0EAE0F4E002C005900D92A037EF
:10009000B107D9F720E0A0E7B0E001C01D92AC376E
:1000A000B207E1F70E9421010C9403020C940000B6
:1000B00080FF02C0DC9A01C0DC9881FF02C0DD9A9B
:1000C00001C0DD9882FF02C0DE9A01C0DE9883FF86
:1000D00002C0DF9A0895DF980895CF93C82FDB9A66
:1000E00082958F700E945800DB98DB9A8C2F0E94BB
:1000F0005800DB9885E88A95F1F70000CF910895C4
:10010000DA980C946D00DA9A0C946D00CF93DF931B
:10011000EC018991882319F00E948300FACFDF91C6
:10012000CF91089590E4699F800D112480680C940C
:10013000800081E00E9480008FE99FE00197F1F745
:1001400000C00000089582E00E9480008FE99FE0D7
:100150000197F1F700C000000895CF93D49AD59A83
:10016000D69AD79AD39AD29A8FE295E70197F1F768
:1001700000C00000DA98DB98C3E0DB9A83E00E94BD
:100180005800DB988FE097E20197F1F700C000007C
:10019000C15099F7DB9A82E00E945800DB988FECFF
:1001A00097E00197F1F700C0000088E20E9480000C
:1001B00088E00E94800081E00E9480008FE99FE03B
:1001C0000197F1F700C0000086E00E9480008CE0FB
:1001D000CF910C9480001F920F920FB60F921124B2
:1001E0008F939F938091720090917300839B02C0C4
:1001F000019601C0019790937300809372009F91C4
:100200008F910F900FBE0F901F9018951F920F9215
:100210000FB60F9211248F939F938091720090914B
:100220007300829B02C0019601C0019790937300F6
:10023000809372009F918F910F900FBE0F901F902F
:100240001895CF93DF93CDB7DEB728970FB6F89404
:10025000DEBF0FBECDBFA89A8A988B9882B38C6000
:1002600082BB8BB7806C8BBF85B78E6085BF78945F
:100270000E94AD000E94A3000E94990060E080E00F
:100280000E9492008FE19EE40197F1F700C0000008
:1002900000E513EC33E6E32EF12CCC24C394D12CEF
:1002A00050E3A52E60E2B62E80917A0090917B00FB
:1002B000009761F5989931C010937B0000937A0004
:1002C0008091720090917300E0917000F091710044
:1002D000EE0FFF1FEC58FF4F918380834AE0BE0171
:1002E0006F5F7F4F0E94CE0161E080E00E9492002C
:1002F000CE0101960E94860080917000909171005D
:100300000196909371008093700007C0989B05C080
:10031000019690937B0080937A0080917200909177
:1003200073008436910520F0F0927300E092720021
:100330008091720090917300892B21F4D092730008
:10034000C092720060E080E00E9492004AE0BE012C
:100350006B5F7F4F80917200909173000E94CE017D
:1003600080917200909173000A9728F48D818E839A
:10037000AD82BF82B886CE0105960E94860060E0FD
:1003800082E00E94920080E690E00E9486008FEC5E
:1003900097E00197F1F700C0000086CFBB274A30F5
:1003A00031F4992322F4BDE2909581959F4F0C94EE
:1003B000DA01BB27FB015527AA27880F991FAA1F1F
:1003C000A41710F0A41B83955051B9F7A05DAA3370
:1003D00008F0A95DA193009779F7B111B19311923B
:1003E000CB010C94F301DC01FC01672F71917723A1
:1003F000E1F7329704C07C916D9370836291AE17E0
:0A040000BF07C8F30895F894FFCF7A
:10040A002020202020202020202020202020200002
:00000001FF
