:100000000C9439000C94E3000C941A010C944E00EB
:100010000C944E000C944E000C944E000C944E0028
:100020000C944E000C944E000C944E000C944E0018
:100030000C944E000C944E000C944E000C944E0008
:100040000C944E000C944E000C944E000C944E00F8
:100050000C944E0032313A33363A34320032303278
:10006000302D30342D313400313100312E302E30EE
:10007000000011241FBECFE5D8E0DEBFCDBF10E0E9
:10008000A0E6B0E0E8EEF2E002C005900D92AA36DC
:10009000B107D9F70E9451010C9472010C94000031
:1000A00080FF02C0DC9A01C0DC9881FF02C0DD9AAB
:1000B00001C0DD9882FF02C0DE9A01C0DE9883FF96
:1000C00002C0DF9A0895DF980895CF93C82FDB9A76
:1000D00082958F700E945000DB98DB9A8C2F0E94D3
:1000E0005000DB9885E88A95F1F70000CF910895DC
:1000F000DA980C946500DA9A0C946500CF93DF933C
:10010000EC018991882319F00E947B00FACFDF91DE
:10011000CF91089590E4699F800D112480680C941C
:10012000780081E00E9478008FE99FE00197F1F765
:1001300000C00000089582E00E9478008FE99FE0EF
:100140000197F1F700C000000895CF93D49AD59A93
:10015000D69AD79AD39AD29A8FE295E70197F1F778
:1001600000C00000DA98DB98C3E0DB9A83E00E94CD
:100170005000DB988FE097E20197F1F700C0000094
:10018000C15099F7DB9A82E00E945000DB988FEC17
:1001900097E00197F1F700C0000088E20E94780024
:1001A00088E00E94780081E00E9478008FE99FE05B
:1001B0000197F1F700C0000086E00E9478008CE013
:1001C000CF910C9478001F920F920FB60F921124CA
:1001D0002F933F934F935F936F937F938F939F934F
:1001E000AF93BF93EF93FF93839B09C00E9491004D
:1001F00060E080E00E948A0080E690E008C00E94F3
:10020000910060E080E00E948A0082E690E00E9417
:100210007E00FF91EF91BF91AF919F918F917F9160
:100220006F915F914F913F912F910F900FBE0F9063
:100230001F9018951F920F920FB60F9211242F93B3
:100240003F934F935F936F937F938F939F93AF935E
:10025000BF93EF93FF93829B09C00E94910060E0DF
:1002600080E00E948A0080E690E008C00E94910031
:1002700060E080E00E948A0082E690E00E947E00BA
:10028000FF91EF91BF91AF919F918F917F916F916E
:100290005F914F913F912F910F900FBE0F901F9044
:1002A00018950E94A5000E949B000E94910060E0AA
:1002B00080E00E948A0084E690E00E947E008A9896
:1002C0008B9882B38C6082BB8BB7806C8BBF85B7F9
:1002D0008E6085BF78948FEC97E00197F1F700C0AE
:0802E0000000F9CFF894FFCFF4
:0A02E8002B002D00494E4954000080
:00000001FF
