:100000000C9439000C94EB000C9406010C945600EF
:100010000C9456000C9456000C9456000C94560008
:100020000C9456000C9456000C9456000C945600F8
:100030000C9456000C9456000C9456000C945600E8
:100040000C9456000C9456000C9456000C945600D8
:100050000C94560032303A31363A3339003230326D
:10006000302D30352D31310031313500312E302EEB
:10007000300011241FBECFE5D8E0DEBFCDBF10E0B9
:10008000A0E6B0E0ECE7F5E002C005900D92AA38DA
:10009000B107D9F720E0AAE8B0E001C01D92AE3860
:1000A000B207E1F70E9421010C94BC020C940000FD
:1000B00080FF02C0DC9A01C0DC9881FF02C0DD9A9B
:1000C00001C0DD9882FF02C0DE9A01C0DE9883FF86
:1000D00002C0DF9A0895DF980895CF93C82FDB9A66
:1000E00082958F700E945800DB98DB9A8C2F0E94BB
:1000F0005800DB9885E88A95F1F70000CF910895C4
:10010000DA980C946D00DA9A0C946D00CF93DF931B
:10011000EC018991882319F00E948300FACFDF91C6
:10012000CF91089590E4699F800D112480680C940C
:10013000800081E00E9480008FE99FE00197F1F745
:1001400000C00000089582E00E9480008FE99FE0D7
:100150000197F1F700C000000895CF93D49AD59A83
:10016000D69AD79AD39AD29A8FE295E70197F1F768
:1001700000C00000DA98DB98C3E0DB9A83E00E94BD
:100180005800DB988FE097E20197F1F700C000007C
:10019000C15099F7DB9A82E00E945800DB988FECFF
:1001A00097E00197F1F700C0000088E20E9480000C
:1001B00088E00E94800081E00E9480008FE99FE03B
:1001C0000197F1F700C0000086E00E9480008CE0FB
:1001D000CF910C9480001F920F920FB60F921124B2
:1001E0008F939F9380918A0090918B00839B02C094
:1001F000019601C0019790938B0080938A009F9194
:100200008F910F900FBE0F901F9018951F920F9215
:100210000FB60F9211248F939F9380918A00909133
:100220008B00829B02C0019601C0019790938B00C6
:1002300080938A009F918F910F900FBE0F901F9017
:100240001895CF93DF93CDB7DEB76E970FB6F894BE
:10025000DEBF0FBECDBFA89A8A988B9882B38C6000
:1002600082BB8BB7806C8BBF85B78E6085BF78945F
:100270000E94AD000E94A3000E94990060E080E00F
:100280000E9492008FE19EE40197F1F700C0000008
:1002900000E010E0E12CF12C30E3632E40E2742EFC
:1002A000CC24C394D12C63E6A62EB12C78EE872EF5
:1002B0007DEF972EE114F10409F0CCC080918C0001
:1002C00090918D00009709F083C0989988C0909212
:1002D0008D0080928C0080918A0090918B00F801B3
:1002E000EE0FFF1F21E030E02C0F3D1FE20FF31F48
:1002F000918780870115110569F44AE0BE01695EA6
:100300007F4F0E94870261E080E00E949200CE0150
:1003100047960FC00130110589F44AE0BE016D5EB9
:100320007F4F0E94870261E083E00E949200CE012D
:1003300043960E9486000F5F1F4F51C00230110587
:1003400071F44AE0BE01615F7F4F0E94870261E065
:1003500086E00E949200CE010F960E948600898559
:100360009A854497F9F48B859C858897D9F48D8577
:100370009E85CC97B9F461E08AE00E94920080E605
:1003800090E00E9486003FEF89E698E1315080407E
:100390009040E1F700C000000E949900EE24E39431
:1003A000F12C1DC061E08AE00E94920085E690E099
:1003B0000E9486002FEF39E688E1215030408040CE
:1003C000E1F700C000000E94990000E010E007C0C3
:1003D000989B05C0019690938D0080938C0080912E
:1003E0008A0090918B008436910520F0B0928B00AA
:1003F000A0928A0080918A0090918B00892B21F431
:10040000D0928B00C0928A0060E080E00E9492004F
:100410004AE0BE01655E7F4F80918A0090918B001B
:100420000E94870280918A0090918B000A9728F49D
:100430008B8D8C8F6B8E7D8E7E8ECE014B960E9427
:10044000860060E082E00E9492008BE690E00E94CD
:10045000860056C091E0E916F10409F051C060E051
:1004600080E00E9492008BE790E00E94860080EF7F
:1004700087BB8FEC97E00197F1F700C000008FE099
:1004800088BB8FEC97E00197F1F700C0000086B3BE
:10049000803FE9F38FE097E20197F1F700C0000099
:1004A00016B387B3809587BB8FEC97E00197F1F780
:1004B00000C0000088B3809588BB8FEC97E001975F
:1004C000F1F700C0000086B3182B61E080E00E94C5
:1004D00092004AE0BE016F5F7F4F812F90E00E9443
:1004E0008702CE0101960E9486001E3781F661E0E8
:1004F00080E00E94920084E890E00E948600C7CFCE
:100500008FEC97E00197F1F700C00000D3CEBB2736
:100510004A3031F4992322F4BDE2909581959F4FA2
:100520000C949302BB27FB015527AA27880F991F1C
:10053000AA1FA41710F0A41B83955051B9F7A05D12
:10054000AA3308F0A95DA193009779F7B111B1938F
:100550001192CB010C94AC02DC01FC01672F71916C
:100560007723E1F7329704C07C916D937083629199
:0C057000AE17BF07C8F30895F894FFCF42
:10057C004F50454E0057524F4E4700202020202010
:10058C0020202020202020202020004B6579626F25
:0A059C006172640064757061000074
:00000001FF
