:100000000C9439000C94EB000C9406010C945600EF
:100010000C9456000C9456000C9456000C94560008
:100020000C9456000C9456000C9456000C945600F8
:100030000C9456000C9456000C9456000C945600E8
:100040000C9456000C9456000C9456000C945600D8
:100050000C94560031333A33303A30330032303278
:10006000302D30352D303800393300312E302E30E0
:10007000000011241FBECFE5D8E0DEBFCDBF10E0E9
:10008000A0E6B0E0E6E5F4E002C005900D92A037EE
:10009000B107D9F720E0A0E7B0E001C01D92A43776
:1000A000B207E1F70E9421010C9429020C94000090
:1000B00080FF02C0DC9A01C0DC9881FF02C0DD9A9B
:1000C00001C0DD9882FF02C0DE9A01C0DE9883FF86
:1000D00002C0DF9A0895DF980895CF93C82FDB9A66
:1000E00082958F700E945800DB98DB9A8C2F0E94BB
:1000F0005800DB9885E88A95F1F70000CF910895C4
:10010000DA980C946D00DA9A0C946D00CF93DF931B
:10011000EC018991882319F00E948300FACFDF91C6
:10012000CF91089590E4699F800D112480680C940C
:10013000800081E00E9480008FE99FE00197F1F745
:1001400000C00000089582E00E9480008FE99FE0D7
:100150000197F1F700C000000895CF93D49AD59A83
:10016000D69AD79AD39AD29A8FE295E70197F1F768
:1001700000C00000DA98DB98C3E0DB9A83E00E94BD
:100180005800DB988FE097E20197F1F700C000007C
:10019000C15099F7DB9A82E00E945800DB988FECFF
:1001A00097E00197F1F700C0000088E20E9480000C
:1001B00088E00E94800081E00E9480008FE99FE03B
:1001C0000197F1F700C0000086E00E9480008CE0FB
:1001D000CF910C9480001F920F920FB60F921124B2
:1001E0008F939F938091700090917100839B02C0C8
:1001F000019601C0019790937100809370009F91C8
:100200008F910F900FBE0F901F9018951F920F9215
:100210000FB60F9211248F939F938091700090914D
:100220007100829B02C0019601C0019790937100FA
:10023000809370009F918F910F900FBE0F901F9031
:100240001895CF93DF93CDB7DEB764970FB6F894C8
:10025000DEBF0FBECDBFA89A8A988B9882B38C6000
:1002600082BB8BB7806C8BBF85B78E6085BF78945F
:100270000E94AD000E94A3000E94990060E080E00F
:100280000E9492008FE19EE40197F1F700C0000008
:1002900000E010E088EEE82E8DEFF82E93E6C92EF0
:1002A000D12CAA24A394B12C30E3832E40E2942EC7
:1002B0008091720090917300009709F04DC0989959
:1002C00052C0F0927300E09272004AE0BE016F5F8C
:1002D0007F4FC8010E94F40161E08AE00E94920011
:1002E000CE0101960E94860080917000909171006D
:1002F0000115110569F44AE0BE01635F7F4F0E945A
:10030000F40161E080E00E949200CE010D961FC0D2
:100310000130110569F44AE0BE01675F7F4F0E941A
:10032000F40161E083E00E949200CE0109960FC0C3
:100330000230110571F44AE0BE016B5F7F4F0E94ED
:10034000F40161E086E00E949200CE0105960E94D1
:1003500086000F5F1F4F07C0989B05C001969093C2
:1003600073008093720080917000909171008436C8
:10037000910520F0D0927100C092700080917000C1
:1003800090917100892B21F4B0927100A0927000BD
:1003900060E080E00E9492004AE0BE016F5E7F4F05
:1003A00080917000909171000E94F4018091700022
:1003B000909171000A9728F489898A8B898A9B8A8F
:1003C0009C8ACE0141960E94860060E082E00E94F5
:1003D000920080E690E00E9486008FEC97E0019703
:1003E000F1F700C0000064CFBB274A3031F49923F5
:1003F00022F4BDE2909581959F4F0C940002BB279B
:10040000FB015527AA27880F991FAA1FA41710F0D0
:10041000A41B83955051B9F7A05DAA3308F0A95DDC
:10042000A193009779F7B111B1931192CB010C947C
:100430001902DC01FC01672F71917723E1F73297F4
:1004400004C07C916D9370836291AE17BF07C8F3AF
:060450000895F894FFCFAF
:1004560020202020202020202020202020202000B6
:00000001FF
