:100000000C9439000C94EB000C9406010C945600EF
:100010000C9456000C9456000C9456000C94560008
:100020000C9456000C9456000C9456000C945600F8
:100030000C9456000C9456000C9456000C945600E8
:100040000C9456000C9456000C9456000C945600D8
:100050000C94560031333A35313A30380032303270
:10006000302D30352D30380031303100312E302EEA
:10007000300011241FBECFE5D8E0DEBFCDBF10E0B9
:10008000A0E6B0E0EAE7F4E002C005900D92A637E2
:10009000B107D9F720E0A6E7B0E001C01D92AA376A
:1000A000B207E1F70E9421010C943B020C9400007E
:1000B00080FF02C0DC9A01C0DC9881FF02C0DD9A9B
:1000C00001C0DD9882FF02C0DE9A01C0DE9883FF86
:1000D00002C0DF9A0895DF980895CF93C82FDB9A66
:1000E00082958F700E945800DB98DB9A8C2F0E94BB
:1000F0005800DB9885E88A95F1F70000CF910895C4
:10010000DA980C946D00DA9A0C946D00CF93DF931B
:10011000EC018991882319F00E948300FACFDF91C6
:10012000CF91089590E4699F800D112480680C940C
:10013000800081E00E9480008FE99FE00197F1F745
:1001400000C00000089582E00E9480008FE99FE0D7
:100150000197F1F700C000000895CF93D49AD59A83
:10016000D69AD79AD39AD29A8FE295E70197F1F768
:1001700000C00000DA98DB98C3E0DB9A83E00E94BD
:100180005800DB988FE097E20197F1F700C000007C
:10019000C15099F7DB9A82E00E945800DB988FECFF
:1001A00097E00197F1F700C0000088E20E9480000C
:1001B00088E00E94800081E00E9480008FE99FE03B
:1001C0000197F1F700C0000086E00E9480008CE0FB
:1001D000CF910C9480001F920F920FB60F921124B2
:1001E0008F939F938091760090917700839B02C0BC
:1001F000019601C0019790937700809376009F91BC
:100200008F910F900FBE0F901F9018951F920F9215
:100210000FB60F9211248F939F9380917600909147
:100220007700829B02C0019601C0019790937700EE
:10023000809376009F918F910F900FBE0F901F902B
:100240001895CF93DF93CDB7DEB766970FB6F894C6
:10025000DEBF0FBECDBFA89A8A988B9882B38C6000
:1002600082BB8BB7806C8BBF85B78E6085BF78945F
:100270000E94AD000E94A3000E94990060E080E00F
:100280000E9492008FE19EE40197F1F700C0000008
:1002900000E010E038EEE32E3DEFF32E43E6C42EEF
:1002A000D12CAA24A394B12C60E3862E70E2972E61
:1002B0008091780090917900009709F05FC098993B
:1002C00064C0F0927900E09278008091760090917D
:1002D0007700F801EE0FFF1F21E030E02C0F3D1FEB
:1002E000E20FF31F918380830115110569F44AE041
:1002F000BE01615F7F4F0E94060261E080E00E94C4
:100300009200CE010F960FC00130110589F44AE02A
:10031000BE01655F7F4F0E94060261E083E00E949C
:100320009200CE010B960E9486000F5F1F4F2DC0DA
:100330000230110571F44AE0BE01695F7F4F0E94EF
:10034000060261E086E00E949200CE0107960E94BC
:10035000860089819A814497C1F48B819C8188971A
:10036000A1F48D819E81CC9781F461E08AE00E94A6
:10037000920080E690E00E94860007C0989B05C02E
:100380000196909379008093780080917600909107
:1003900077008436910520F0D0927700C0927600E5
:1003A0008091760090917700892B21F4B0927700AC
:1003B000A092760060E080E00E9492004AE0BE01D8
:1003C0006D5E7F4F80917600909177000E940602CB
:1003D00080917600909177000A9728F48B898C8B16
:1003E0008B8A9D8A9E8ACE0143960E94860060E099
:1003F00082E00E94920085E690E00E9486008FECE9
:1004000097E00197F1F700C0000052CFBB274A30B8
:1004100031F4992322F4BDE2909581959F4F0C947D
:100420001202BB27FB015527AA27880F991FAA1F75
:10043000A41710F0A41B83955051B9F7A05DAA33FF
:1004400008F0A95DA193009779F7B111B1931192CA
:10045000CB010C942B02DC01FC01672F71917723F7
:10046000E1F7329704C07C916D9370836291AE176F
:0A047000BF07C8F30895F894FFCF0A
:10047A004F50454E002020202020202020202020E0
:06048A00202020200000EC
:00000001FF
