:100000000C9439000C94EB000C9406010C945600EF
:100010000C9456000C9456000C9456000C94560008
:100020000C9456000C9456000C9456000C945600F8
:100030000C9456000C9456000C9456000C945600E8
:100040000C9456000C9456000C9456000C945600D8
:100050000C94560032313A34303A31370032303273
:10006000302D30352D31310031333800312E302EE6
:10007000300011241FBECFE5D8E0DEBFCDBF10E0B9
:10008000A0E6B0E0E4EDF7E002C005900D92A439DF
:10009000B107D9F720E0A4E9B0E001C01D92A8396A
:1000A000B207E1F70E9421010C94E8030C940000D0
:1000B00080FF02C0DC9A01C0DC9881FF02C0DD9A9B
:1000C00001C0DD9882FF02C0DE9A01C0DE9883FF86
:1000D00002C0DF9A0895DF980895CF93C82FDB9A66
:1000E00082958F700E945800DB98DB9A8C2F0E94BB
:1000F0005800DB9885E88A95F1F70000CF910895C4
:10010000DA980C946D00DA9A0C946D00CF93DF931B
:10011000EC018991882319F00E948300FACFDF91C6
:10012000CF91089590E4699F800D112480680C940C
:10013000800081E00E9480008FE99FE00197F1F745
:1001400000C00000089582E00E9480008FE99FE0D7
:100150000197F1F700C000000895CF93D49AD59A83
:10016000D69AD79AD39AD29A8FE295E70197F1F768
:1001700000C00000DA98DB98C3E0DB9A83E00E94BD
:100180005800DB988FE097E20197F1F700C000007C
:10019000C15099F7DB9A82E00E945800DB988FECFF
:1001A00097E00197F1F700C0000088E20E9480000C
:1001B00088E00E94800081E00E9480008FE99FE03B
:1001C0000197F1F700C0000086E00E9480008CE0FB
:1001D000CF910C9480001F920F920FB60F921124B2
:1001E0008F939F938091940090919500839B02C080
:1001F000019601C0019790939500809394009F9180
:100200008F910F900FBE0F901F9018951F920F9215
:100210000FB60F9211248F939F9380919400909129
:100220009500829B02C0019601C0019790939500B2
:10023000809394009F918F910F900FBE0F901F900D
:100240001895CF93DF93CDB7DEB76A970FB6F894C2
:10025000DEBF0FBECDBFA89A8A988B9882B38C6000
:1002600082BB8BB7806C8BBF85B78E6085BF78945F
:100270000E94AD000E94A3000E94990060E080E00F
:100280000E9492008FE19EE40197F1F700C0000008
:1002900000E010E0E12CF12CC12CD12CB0E3BB2EFE
:1002A00088248394912CC114D10409F0D2C0809188
:1002B000960090919700009709F088C098998DC09A
:1002C00088EE9DEF90939700809396008091940024
:1002D00090919500F701EE0FFF1F21E030E02C0F09
:1002E0003D1FE20FF31F91838083E114F10469F451
:1002F0004AE0BE016D5E7F4F0E94B30361E080E083
:100300000E949200CE01439610C031E0E316F10442
:1003100091F44AE0BE01615F7F4F0E94B30361E048
:1003200083E00E949200CE010F960E948600FFEFAC
:10033000EF1AFF0A52C0E2E0EE16F10471F44AE04F
:10034000BE01655F7F4F0E94B30361E086E00E94BB
:100350009200CE010B960E94860089819A81449773
:10036000F9F48B819C818897D9F48D819E81CC97FB
:10037000B9F461E08AE00E94920080E690E00E9479
:1003800086002FEF39E688E1215030408040E1F7C8
:1003900000C000000E949900CC24C394D12C1DC041
:1003A00061E08AE00E94920085E690E00E9486006B
:1003B0009FEFE9E6F8E19150E040F040E1F700C03E
:1003C00000000E949900E12CF12C07C0989B05C009
:1003D000019690939700809396008091940090915D
:1003E00095008436910530F083E690E09093950077
:1003F000809394008091940090919500892B21F432
:10040000909295008092940060E080E00E949200BB
:100410004AE0BE01695E7F4F809194009091950003
:100420000E94B30380919400909195000A9730F454
:100430008F89888FBF8A80E2898F8A8FCE01479605
:100440000E94860060E082E00E9492008BE690E0CD
:1004500081C121E0C216D10409F072C160E080E0E0
:100460000E9492008BE790E00E94860080EF87BB9D
:100470008FEC97E00197F1F700C000008FE088BB98
:10048000EFECF7E03197F1F700C000008FE58F83C4
:10049000888789878A8761E080E00E949200CE0188
:1004A00007960E94860061E084E00E9492008CE63C
:1004B00090E00E94860081E3A82E96E3792E25E342
:1004C000622E34E3532E49E3442E58E3352E67E37E
:1004D000262E86B3803FE9F38FE097E20197F1F78C
:1004E00000C0000026B397B3909597BBEFECF7E000
:1004F0003197F1F700C0000098B3909598BB8FEC4E
:1005000097E00197F1F700C0000086B3822B8E3789
:1005100081F4043011050CF0BCC061E080E00E9461
:100520009200E7E0F0E0EC0FFD1FE00FF11F2082EA
:10053000A2C08E3B81F4043011050CF0AAC061E02A
:1005400080E00E949200E7E0F0E0EC0FFD1FE00F7A
:10055000F11F308290C08E3D81F4043011050CF003
:1005600098C061E080E00E949200E7E0F0E0EC0FCC
:10057000FD1FE00FF11F40827EC08D3781F40430F3
:1005800011050CF086C061E080E00E949200E7E077
:10059000F0E0EC0FFD1FE00FF11F50826CC08D3BAF
:1005A00081F4043011050CF074C061E080E00E9419
:1005B0009200E7E0F0E0EC0FFD1FE00FF11F60821A
:1005C0005AC08D3D81F4043011050CF062C061E029
:1005D00080E00E949200E7E0F0E0EC0FFD1FE00FEA
:1005E000F11F708248C08B3781F4043011050CF084
:1005F00050C061E080E00E949200E7E0F0E0EC0F84
:10060000FD1FE00FF11FA08236C08B3B89F4043040
:1006100011050CF041C061E080E00E949200E7E02B
:10062000F0E0EC0FFD1FE00FF11F92E3908323C079
:100630008B3D81F4043011057CF561E080E00E947F
:100640009200E7E0F0E0EC0FFD1FE00FF11F23E365
:10065000208311C0873BE9F404301105ECF461E01C
:1006600080E00E949200E7E0F0E0EC0FFD1FE00F59
:10067000F11F30E33083CE0107960E94860061E0CF
:1006800084E00E9492008CE690E00E9486000F5F5A
:100690001F4F04301105DCF18F81813309F5888506
:1006A0008933F1F489858933D9F48A858533C1F496
:1006B00061E08AE00E94920080E690E00E9486005D
:1006C0008FEF99E6E8E181509040E040E1F700C00B
:1006D0000000FFEFCF1ADF0A0E94990080E018C0E7
:1006E00061E08AE00E94920085E690E00E94860028
:1006F0002FEF39E688E1215030408040E1F700C01B
:1007000000000E94990080E000E010E001C081E05C
:1007100097B3909597BBEFECF7E03197F1F700C0F6
:10072000000098B3909598BBFFEF2EE535E0F150AF
:1007300020403040E1F700C00000813069F4C9CEAC
:1007400082E0C816D10441F460E080E00E9492008B
:1007500084E890E00E948600EFECF7E03197F1F733
:1007600000C00000A0CDBB274A3031F4992322F409
:10077000BDE2909581959F4F0C94BF03BB27FB0171
:100780005527AA27880F991FAA1FA41710F0A41B8A
:1007900083955051B9F7A05DAA3308F0A95DA193E4
:1007A000009779F7B111B1931192CB010C94D80352
:1007B000DC01FC01672F71917723E1F7329704C0C8
:1007C0007C916D9370836291AE17BF07C8F3089553
:0407D000F894FFCFCB
:1007D4004F50454E0057524F4E47002020202020B6
:1007E40020202020202020202020004B6579626FCB
:1007F40061726400506173732052464944206361FE
:04080400726400001A
:00000001FF
