:100000000C9439000C94EB000C9406010C945600EF
:100010000C9456000C9456000C9494050C945600C5
:100020000C9456000C9456000C9456000C945600F8
:100030000C9456000C9456000C9456000C945600E8
:100040000C9456000C9456000C9456000C945600D8
:100050000C94560032313A33343A3239003230326D
:10006000302D30352D31390031363600312E302EDD
:10007000300011241FBECFE5D8E0DEBFCDBF10E0B9
:10008000A0E6B0E0ECE6FEE002C005900D92A43AD6
:10009000B107D9F720E0A4EAB0E001C01D92A33C6B
:1000A000B207E1F70E9421010C9434070C94000080
:1000B00080FF02C0DC9A01C0DC9881FF02C0DD9A9B
:1000C00001C0DD9882FF02C0DE9A01C0DE9883FF86
:1000D00002C0DF9A0895DF980895CF93C82FDB9A66
:1000E00082958F700E945800DB98DB9A8C2F0E94BB
:1000F0005800DB9885E88A95F1F70000CF910895C4
:10010000DA980C946D00DA9A0C946D00CF93DF931B
:10011000EC018991882319F00E948300FACFDF91C6
:10012000CF91089590E4699F800D112480680C940C
:10013000800081E00E9480008FE99FE00197F1F745
:1001400000C00000089582E00E9480008FE99FE0D7
:100150000197F1F700C000000895CF93D49AD59A83
:10016000D69AD79AD39AD29A8FE295E70197F1F768
:1001700000C00000DA98DB98C3E0DB9A83E00E94BD
:100180005800DB988FE097E20197F1F700C000007C
:10019000C15099F7DB9A82E00E945800DB988FECFF
:1001A00097E00197F1F700C0000088E20E9480000C
:1001B00088E00E94800081E00E9480008FE99FE03B
:1001C0000197F1F700C0000086E00E9480008CE0FB
:1001D000CF910C9480001F920F920FB60F921124B2
:1001E0008F939F938091A4009091A500839B02C060
:1001F000019601C001979093A5008093A4009F9160
:100200008F910F900FBE0F901F9018951F920F9215
:100210000FB60F9211248F939F938091A400909119
:10022000A500829B02C0019601C001979093A50092
:100230008093A4009F918F910F900FBE0F901F90FD
:100240001895CF93DF93CDB7DEB76A970FB6F894C2
:10025000DEBF0FBECDBFA89A8A988B9882B38C6000
:1002600082BB8BB7806C8BBF85B78E6085BF78945F
:100270000E94AD000E94A3000E94990060E080E00F
:100280000E9492008FE19EE40197F1F700C0000008
:1002900000E010E0E12CF12CC12CD12CB0E3BB2EFE
:1002A00088248394912CC114D10409F0D4C0809186
:1002B000B3009091B400009709F088C098998DC060
:1002C00088EE9DEF9093B4008093B3008091A400DA
:1002D0009091A500F701EE0FFF1F21E030E02C0FF9
:1002E0003D1FE20FF31F91838083E114F10469F451
:1002F0004AE0BE016D5E7F4F0E94FF0661E080E034
:100300000E949200CE01439610C031E0E316F10442
:1003100091F44AE0BE01615F7F4F0E94FF0661E0F9
:1003200083E00E949200CE010F960E948600FFEFAC
:10033000EF1AFF0A52C0E2E0EE16F10471F44AE04F
:10034000BE01655F7F4F0E94FF0661E086E00E946C
:100350009200CE010B960E94860089819A81449773
:10036000F9F48B819C818897D9F48D819E81CC97FB
:10037000B9F461E08AE00E94920080E690E00E9479
:1003800086002FEF39E688E1215030408040E1F7C8
:1003900000C000000E949900CC24C394D12C1DC041
:1003A00061E08AE00E94920085E690E00E9486006B
:1003B0009FEFE9E6F8E19150E040F040E1F700C03E
:1003C00000000E949900E12CF12C07C0989B05C009
:1003D00001969093B4008093B3008091A400909113
:1003E000A5008436910530F083E690E09093A50057
:1003F0008093A4008091A4009091A500892B21F402
:100400009092A5008092A40060E080E00E9492009B
:100410004AE0BE01695E7F4F8091A4009091A500E3
:100420000E94FF068091A4009091A5000A9730F4E5
:100430008F89888FBF8A80E2898F8A8FCE01479605
:100440000E94860060E082E00E9492008BE690E0CD
:100450000E9486008CC121E0C216D10409F072C14D
:1004600060E080E00E9492008BE790E00E948600AE
:1004700080EF87BB8FEC97E00197F1F700C0000099
:100480008FE088BBEFECF7E03197F1F700C0000098
:100490008FE58F83888789878A8761E080E00E9463
:1004A0009200CE0107960E94860061E084E00E94DF
:1004B00092008CE690E00E94860081E3A82E96E3ED
:1004C000792E25E3622E34E3532E49E3442E58E37C
:1004D000352E67E3262E86B3803FE9F38FE097E25F
:1004E0000197F1F700C0000026B397B3909597BB32
:1004F000EFECF7E03197F1F700C0000098B390956A
:1005000098BB8FEC97E00197F1F700C0000086B32D
:10051000822B8E3781F4043011050CF0BCC061E0F1
:1005200080E00E949200E7E0F0E0EC0FFD1FE00F9A
:10053000F11F2082A2C08E3B81F4043011050CF023
:10054000AAC061E080E00E949200E7E0F0E0EC0FDA
:10055000FD1FE00FF11F308290C08E3D81F404300A
:1005600011050CF098C061E080E00E949200E7E085
:10057000F0E0EC0FFD1FE00FF11F40827EC08D37D1
:1005800081F4043011050CF086C061E080E00E9427
:100590009200E7E0F0E0EC0FFD1FE00FF11F50824A
:1005A0006CC08D3B81F4043011050CF074C061E027
:1005B00080E00E949200E7E0F0E0EC0FFD1FE00F0A
:1005C000F11F60825AC08D3D81F4043011050CF09A
:1005D00062C061E080E00E949200E7E0F0E0EC0F92
:1005E000FD1FE00FF11F708248C08B3781F404308B
:1005F00011050CF050C061E080E00E949200E7E03D
:10060000F0E0EC0FFD1FE00FF11FA08236C08B3B26
:1006100089F4043011050CF041C061E080E00E94D3
:100620009200E7E0F0E0EC0FFD1FE00FF11F92E316
:10063000908323C08B3D81F4043011057CF561E08B
:1006400080E00E949200E7E0F0E0EC0FFD1FE00F79
:10065000F11F23E3208311C0873BE9F40430110527
:10066000ECF461E080E00E949200E7E0F0E0EC0F43
:10067000FD1FE00FF11F30E33083CE0107960E948B
:10068000860061E084E00E9492008CE690E00E9487
:1006900086000F5F1F4F04301105DCF18F8181331D
:1006A00009F588858933F1F489858933D9F48A85F8
:1006B0008533C1F461E08AE00E94920080E690E018
:1006C0000E9486008FEF99E6E8E181509040E0407B
:1006D000E1F700C00000FFEFCF1ADF0A0E94990087
:1006E00080E018C061E08AE00E94920085E690E018
:1006F0000E9486002FEF39E688E12150304080408B
:10070000E1F700C000000E94990080E000E010E0E6
:1007100001C081E097B3909597BBEFECF7E031977C
:10072000F1F700C0000098B3909598BBFFEF2EE55D
:1007300035E0F15020403040E1F700C0000081304A
:10074000B1F4C9CE82E0C816D10489F460E080E03B
:100750000E94920084E890E00E9486000E94BE03FE
:100760008091BE008230E1F78091BF00F9CFEFECBD
:10077000F7E03197F1F700C0000095CDBB98C39A20
:10078000BA9AB99AC198C2982FEF80E792E02150A7
:1007900080409040E1F700C00000C29A2FEF80E750
:1007A00092E0215080409040E1F700C00000C298E4
:1007B0008EB587608EBD8EB58F7B8EBD89B780620A
:1007C00089BF1092B5000895EF92FF920F931F9387
:1007D000CF93DF93E0E48091B6008091B7008091E1
:1007E000B8008091B9008091BA008091BB008091DF
:1007F000BC008091BD00E090B600F090B700109171
:10080000B800D091B900C091BA00B091BB00A091DE
:10081000BC00F091BD002091B6003091B70040912E
:10082000B8005091B9006091BA007091BB008091FE
:10083000BC009091BD0001E00E94BC062093B60070
:100840003093B7004093B8005093B9006093BA005A
:100850007093BB008093BC009093BD009701412F23
:100860005D2F6C2F7B2F8A2F9F2FA0E00E94F30615
:100870000CF58091B6007091B7006091B80050916E
:10088000B9004091BA003091BB002091BC0090911A
:10089000BD0081608093B6007093B7006093B8008C
:1008A0005093B9004093BA003093BB002093BC0032
:1008B0009093BD00E15009F08ECF8091B6008091F9
:1008C000B7008091B8008091B9008091BA00809102
:1008D000BB008091BC008091BD0080E0DF91CF9192
:1008E0001F910F91FF90EF9008958F929F92AF927A
:1008F000BF92CF92DF92EF92FF920F931F93CF930D
:10090000DF93C0E0D0E0B0E011E0BC2ED090B600A4
:10091000E090B700F090B800A091B900F091BA0053
:10092000E091BB00A090BC00C090BD0020EC33E083
:1009300040E050E060E070E080E090E00C2F0E942A
:10094000BC062D213E214F215A236F237E238A216D
:100950009C21FE0136960E2F0E94D706A22F203131
:1009600030F4E22FF0E0ED56FF4FA08002C082E0AD
:10097000A82EC090B600D090B700E090B800F090DC
:10098000B900F091BA00E091BB008090BC0090905B
:10099000BD00259620E230E040E050E060E070E0ED
:1009A00080E090E00B2D0E94BC062C213D214E21C1
:1009B0005F216F237E23882199210C2F0E94D70667
:1009C000A21210E0EB2FE695F0E0E254FF4FB0FDED
:1009D00002C0A08307C0808190E1A99F90011124EB
:1009E000282B2083BF5FC233D10509F08ECF812F22
:1009F000DF91CF911F910F91FF90EF90DF90CF90FB
:100A0000BF90AF909F908F9008952F923F924F92FA
:100A10005F926F927F928F929F92AF92BF92CF928E
:100A2000DF92EF92FF920F931F93CF93DF93E0E05B
:100A3000F0E080E8E82EF12CB1E093E0C92ED12C53
:100A400024E0A22EB12CB7010E2E02C07595679539
:100A50000A94E2F708E010E00E2E02C01595079503
:100A60000A94E2F720E030E0A0E0A90142545F4F91
:100A7000EA01888190E086239723892B09F0AB2730
:100A8000EA01888190E080239123892B09F0AB272C
:100A90002F5F3F4F2530310541F73090B600409031
:100AA000B7007090B8008090B9009090BA00209084
:100AB000BB005090BC006090BD0022E030E040E000
:100AC00050E060E070E080E090E086010E1B1F0BBC
:100AD0000E94BC062321342147215821692172211B
:100AE0008521962185010E1B1F0B0E94D706A2139C
:100AF00007C03196E430F10509F0A5CF81E001C0CF
:100B000080E0DF91CF911F910F91FF90EF90DF90E8
:100B1000CF90BF90AF909F908F907F906F905F909D
:100B20004F903F902F9008951F920F920FB60F9203
:100B300011240F932F933F934F935F936F937F9362
:100B40008F939F93AF93BF93EF93FF9386B597B522
:100B50004091B1005091B200805B910926B537B544
:100B60003093B2002093B1003EB520E423272EBD80
:100B7000E091B000E11115C01092AF0021E0209388
:100B8000AE001092A6001092A7001092A80010923A
:100B9000A9001092AA001092AB001092AC00109223
:100BA000AD00841B950B813A21E0920718F010925A
:100BB000B00062C0F091AF00813A910568F5E0FDA8
:100BC00029C02091A6003091A7004091A800509123
:100BD000A9006091AA007091AB008091AC00909147
:100BE000AD0001E00E94BC06A091AE002A2B20932C
:100BF000A6003093A7004093A8005093A9006093EB
:100C0000AA007093AB008093AC009093AD00FF5F9F
:100C1000F093AF00EF5F2EC0A091AE0081E0A82757
:100C2000A093AE002091A6003091A7004091A800AB
:100C30005091A9006091AA007091AB008091AC0026
:100C40009091AD0001E00E94BC06A22BA093A600EB
:100C50003093A7004093A8005093A9006093AA0086
:100C60007093AB008093AC009093AD00FF5FF09366
:100C7000AF00EE5FE093B0008091AF00813408F4E4
:100C800069C01092B0008091B500811163C070916D
:100C9000A6006091A7005091A8004091A900309152
:100CA000AA002091AB009091AC008091AD007093B0
:100CB000B6006093B7005093B8004093B9003093EA
:100CC000BA002093BB009093BC008093BD000E94AB
:100CD000E403882341F00E947504882321F00E94D8
:100CE000050581112DC07091B6006091B70050913B
:100CF000B8004091B9003091BA002091BB009091AA
:100D0000BC008091BD0070956095509540953095E0
:100D10002095909580957093B6006093B70050939E
:100D2000B8004093B9003093BA002093BB00909371
:100D3000BC008093BD000E94E403811104C080E0E8
:100D40008093B50007C00E9475048823C1F30E94F8
:100D50000505F6CFFF91EF91BF91AF919F918F91D4
:100D60007F916F915F914F913F912F910F910F90D4
:100D70000FBE0F901F9018950F93083090F0982F8A
:100D8000872F762F652F542F432F322F222708507D
:100D9000F4CF220F331F441F551F661F771F881F74
:100DA000991F0A95B2F70F91089597FB10F81694C2
:100DB00000080F93083098F00850232F342F452F48
:100DC000562F672F782F892F902DF4CF0594979564
:100DD00087957795679557954795379527950A9500
:100DE000AAF70F9108950024A7FD00942A17300553
:100DF0004005500560057005800590050895BB27E6
:100E00004A3031F4992322F4BDE2909581959F4FA9
:100E10000C940B07BB27FB015527AA27880F991FA6
:100E2000AA1FA41710F0A41B83955051B9F7A05D19
:100E3000AA3308F0A95DA193009779F7B111B19396
:100E40001192CB010C942407DC01FC01672F7191F6
:100E50007723E1F7329704C07C916D9370836291A0
:0C0E6000AE17BF07C8F30895F894FFCF49
:100E6C004F50454E0057524F4E4700202020202017
:100E7C0020202020202020202020004B6579626F2C
:100E8C00617264005061737320524649442063615F
:100E9C00726400000101000100000101000001006A
:040EAC000101000040
:00000001FF
