:100000000C9438000C944D000C944D000C944D0051
:100010000C944D000C944D000C944D000C944D002C
:100020000C944D000C944D000C944D000C944D001C
:100030000C944D000C944D000C944D000C944D000C
:100040000C944D000C944D000C944D000C944D00FC
:100050000C944D0032313A32373A3130003230327E
:10006000302D30342D3134003700312E302E300019
:1000700011241FBECFE5D8E0DEBFCDBF10E0A0E663
:10008000B0E0E6EFF1E002C005900D92A836B107AE
:10009000D9F70E94E2000C94F9000C94000080FF54
:1000A00002C0DC9A01C0DC9881FF02C0DD9A01C069
:1000B000DD9882FF02C0DE9A01C0DE9883FF02C095
:1000C000DF9A0895DF980895CF93C82FDB9A829521
:1000D0008F700E944F00DB98DB9A8C2F0E944F009C
:1000E000DB9885E88A95F1F70000CF910895DA98BA
:1000F0000C946400DA9A0C946400CF93DF93EC01C3
:100100008991882319F00E947A00FACFDF91CF916C
:10011000089590E4699F800D112480680C94770005
:1001200081E00E9477008FE99FE00197F1F700C01E
:100130000000089582E00E9477008FE99FE0019718
:10014000F1F700C000000895CF93D49AD59AD69ABB
:10015000D79AD39AD29A8FE295E70197F1F700C028
:100160000000DA98DB98C3E0DB9A83E00E944F003E
:10017000DB988FE097E20197F1F700C00000C150D3
:1001800099F7DB9A82E00E944F00DB988FEC97E0B2
:100190000197F1F700C0000088E20E94770088E034
:1001A0000E94770081E00E9477008FE99FE001972D
:1001B000F1F700C0000086E00E9477008CE0CF914C
:1001C0000C9477000E94A4000E949A000E94900064
:1001D00060E080E00E94890080E690E00E947D005F
:1001E00061E080E00E94890085E690E00E947D0049
:0601F000FFCFF894FFCFE1
:0801F600746573740078440085
:00000001FF
