:100000000C9439000C94EB000C9406010C945600EF
:100010000C9456000C9456000C9456000C94560008
:100020000C9456000C9456000C9456000C945600F8
:100030000C9456000C9456000C9456000C945600E8
:100040000C9456000C9456000C9456000C945600D8
:100050000C94560032313A32343A32330032303274
:10006000302D30352D31310031333000312E302EEE
:10007000300011241FBECFE5D8E0DEBFCDBF10E0B9
:10008000A0E6B0E0E6EFF4E002C005900D92A837DC
:10009000B107D9F720E0A8E7B0E001C01D92AA3768
:1000A000B207E1F70E9421010C9479020C94000040
:1000B00080FF02C0DC9A01C0DC9881FF02C0DD9A9B
:1000C00001C0DD9882FF02C0DE9A01C0DE9883FF86
:1000D00002C0DF9A0895DF980895CF93C82FDB9A66
:1000E00082958F700E945800DB98DB9A8C2F0E94BB
:1000F0005800DB9885E88A95F1F70000CF910895C4
:10010000DA980C946D00DA9A0C946D00CF93DF931B
:10011000EC018991882319F00E948300FACFDF91C6
:10012000CF91089590E4699F800D112480680C940C
:10013000800081E00E9480008FE99FE00197F1F745
:1001400000C00000089582E00E9480008FE99FE0D7
:100150000197F1F700C000000895CF93D49AD59A83
:10016000D69AD79AD39AD29A8FE295E70197F1F768
:1001700000C00000DA98DB98C3E0DB9A83E00E94BD
:100180005800DB988FE097E20197F1F700C000007C
:10019000C15099F7DB9A82E00E945800DB988FECFF
:1001A00097E00197F1F700C0000088E20E9480000C
:1001B00088E00E94800081E00E9480008FE99FE03B
:1001C0000197F1F700C0000086E00E9480008CE0FB
:1001D000CF910C9480001F920F920FB60F921124B2
:1001E0008F939F938091780090917900839B02C0B8
:1001F000019601C0019790937900809378009F91B8
:100200008F910F900FBE0F901F9018951F920F9215
:100210000FB60F9211248F939F9380917800909145
:100220007900829B02C0019601C0019790937900EA
:10023000809378009F918F910F900FBE0F901F9029
:100240001895CF93DF9300D000D0CDB7DEB7A89A32
:100250008A988B9882B38C6082BB8BB7806C8BBF83
:1002600085B78E6085BF78940E94AD000E94A30080
:100270000E94990060E080E00E9492008FE19EE47D
:100280000197F1F700C0000060E080E00E9492005A
:1002900080E690E00E94860080EF87BB8FEC97E0BD
:1002A0000197F1F700C000008FE088BB8FEC97E06A
:1002B0000197F1F700C000008FE589838A838B8363
:1002C0008C8361E080E00E949200CE0101960E9442
:1002D000860061E084E00E94920089E690E00E943E
:1002E000860000E010E080E3F82E93E3E92E22E39D
:1002F000D22E31E3C32E46E3B42E55E3A52E64E39C
:10030000962E79E3872EE8E37E2EF7E36F2E86B3F1
:10031000803FE9F38FE097E20197F1F700C000001A
:1003200026B397B3909597BB8FEC97E00197F1F7C1
:1003300000C0000098B3909598BB8FEC97E00197B0
:10034000F1F700C0000086B3822B8E3781F40430B1
:1003500011050CF0B8C061E080E00E949200E1E07D
:10036000F0E0EC0FFD1FE00FF11F60829EC08E3B9E
:1003700081F4043011050CF0A6C061E080E00E9419
:100380009200E1E0F0E0EC0FFD1FE00FF11F708242
:100390008CC08E3D81F4043011050CF094C061E0F6
:1003A00080E00E949200E1E0F0E0EC0FFD1FE00F22
:1003B000F11F80827AC08D3781F4043011050CF072
:1003C00082C061E080E00E949200E1E0F0E0EC0F8A
:1003D000FD1FE00FF11F908268C08D3B81F4043057
:1003E00011050CF070C061E080E00E949200E1E035
:1003F000F0E0EC0FFD1FE00FF11FA08256C08D3D15
:1004000081F4043011050CF05EC061E080E00E94D0
:100410009200E1E0F0E0EC0FFD1FE00FF11FB08271
:1004200044C08B3781F4043011050CF04CC061E0FE
:1004300080E00E949200E1E0F0E0EC0FFD1FE00F91
:10044000F11FC08232C08B3B79F404301105DCF51A
:1004500061E080E00E949200E1E0F0E0EC0FFD1F1F
:10046000E00FF11FD08221C08B3D79F404301105DB
:1004700054F561E080E00E949200E1E0F0E0EC0FD2
:10048000FD1FE00FF11FE08210C0873BE1F4043054
:100490001105CCF461E080E00E949200E1E0F0E020
:1004A000EC0FFD1FE00FF11FF082CE0101960E94BC
:1004B000860061E084E00E94920089E690E00E945C
:1004C00086000F5F1F4F87B3809587BB8FEC97E047
:1004D0000197F1F700C0000088B3809588BB9FEFBB
:1004E0002EE585E0915020408040E1F700C00000FB
:0604F0000ECFF894FFCFCF
:1004F6004B6579626F6172640020202020202020E5
:0805060020202020202020000D
:00000001FF
