:100000000C9439000C94EB000C9406010C945600EF
:100010000C9456000C9456000C9456000C94560008
:100020000C9456000C9456000C9456000C945600F8
:100030000C9456000C9456000C9456000C945600E8
:100040000C9456000C9456000C9456000C945600D8
:100050000C94560032313A30333A30380032303274
:10006000302D30342D323700343900312E302E30DF
:10007000000011241FBECFE5D8E0DEBFCDBF10E0E9
:10008000A0E6B0E0E2E9F3E002C005900D92A637E9
:10009000B107D9F720E0A6E7B0E001C01D92AA376A
:1000A000B207E1F70E9421010C94C7010C940000F3
:1000B00080FF02C0DC9A01C0DC9881FF02C0DD9A9B
:1000C00001C0DD9882FF02C0DE9A01C0DE9883FF86
:1000D00002C0DF9A0895DF980895CF93C82FDB9A66
:1000E00082958F700E945800DB98DB9A8C2F0E94BB
:1000F0005800DB9885E88A95F1F70000CF910895C4
:10010000DA980C946D00DA9A0C946D00CF93DF931B
:10011000EC018991882319F00E948300FACFDF91C6
:10012000CF91089590E4699F800D112480680C940C
:10013000800081E00E9480008FE99FE00197F1F745
:1001400000C00000089582E00E9480008FE99FE0D7
:100150000197F1F700C000000895CF93D49AD59A83
:10016000D69AD79AD39AD29A8FE295E70197F1F768
:1001700000C00000DA98DB98C3E0DB9A83E00E94BD
:100180005800DB988FE097E20197F1F700C000007C
:10019000C15099F7DB9A82E00E945800DB988FECFF
:1001A00097E00197F1F700C0000088E20E9480000C
:1001B00088E00E94800081E00E9480008FE99FE03B
:1001C0000197F1F700C0000086E00E9480008CE0FB
:1001D000CF910C9480001F920F920FB60F921124B2
:1001E0008F939F938091760090917700839B02C0BC
:1001F000019601C0019790937700809376009F91BC
:100200008F910F900FBE0F901F9018951F920F9215
:100210000FB60F9211248F939F9380917600909147
:100220007700829B02C0019601C0019790937700EE
:10023000809376009F918F910F900FBE0F901F902B
:100240001895CF93DF9300D000D0CDB7DEB7A89A32
:100250008A988B9882B38C6082BB8BB7806C8BBF83
:1002600085B78E6085BF78940E94AD000E94A30080
:100270000E94990060E080E00E9492008FE19EE47D
:100280000197F1F700C0000080E5E82E83ECF82E1E
:1002900000E310E28091780090917900009779F462
:1002A000989914C0F0927900E092780061E080E0C3
:1002B0000E94920080E690E00E94860007C0989B12
:1002C00005C00196909379008093780060E080E00B
:1002D0000E9492004AE0BE016F5F7F4F80917600DE
:1002E000909177000E949201809176009091770022
:1002F0000A9728F489818A8309831B831C83CE0192
:1003000001960E94860060E082E00E94920086E6EC
:1003100090E00E9486008FEC97E00197F1F700C013
:100320000000B8CFBB274A3031F4992322F4BDE254
:10033000909581959F4F0C949E01BB27FB015527FB
:10034000AA27880F991FAA1FA41710F0A41B839532
:100350005051B9F7A05DAA3308F0A95DA1930097A9
:1003600079F7B111B1931192CB010C94B701DC0173
:10037000FC01672F71917723E1F7329704C07C91DC
:100380006D9370836291AE17BF07C8F30895F89418
:02039000FFCF9D
:10039200505245535300202020202020202020208E
:0603A200202020202000B5
:00000001FF
