:100000000C9439000C94EB000C9406010C945600EF
:100010000C9456000C9456000C9456000C94560008
:100020000C9456000C9456000C9456000C945600F8
:100030000C9456000C9456000C9456000C945600E8
:100040000C9456000C9456000C9456000C945600D8
:100050000C94560031343A30333A35330032303272
:10006000302D30352D30380031303700312E302EE4
:10007000300011241FBECFE5D8E0DEBFCDBF10E0B9
:10008000A0E6B0E0E4EEF4E002C005900D92A438E2
:10009000B107D9F720E0A4E8B0E001C01D92A8386C
:1000A000B207E1F70E9421010C9470020C94000049
:1000B00080FF02C0DC9A01C0DC9881FF02C0DD9A9B
:1000C00001C0DD9882FF02C0DE9A01C0DE9883FF86
:1000D00002C0DF9A0895DF980895CF93C82FDB9A66
:1000E00082958F700E945800DB98DB9A8C2F0E94BB
:1000F0005800DB9885E88A95F1F70000CF910895C4
:10010000DA980C946D00DA9A0C946D00CF93DF931B
:10011000EC018991882319F00E948300FACFDF91C6
:10012000CF91089590E4699F800D112480680C940C
:10013000800081E00E9480008FE99FE00197F1F745
:1001400000C00000089582E00E9480008FE99FE0D7
:100150000197F1F700C000000895CF93D49AD59A83
:10016000D69AD79AD39AD29A8FE295E70197F1F768
:1001700000C00000DA98DB98C3E0DB9A83E00E94BD
:100180005800DB988FE097E20197F1F700C000007C
:10019000C15099F7DB9A82E00E945800DB988FECFF
:1001A00097E00197F1F700C0000088E20E9480000C
:1001B00088E00E94800081E00E9480008FE99FE03B
:1001C0000197F1F700C0000086E00E9480008CE0FB
:1001D000CF910C9480001F920F920FB60F921124B2
:1001E0008F939F938091840090918500839B02C0A0
:1001F000019601C0019790938500809384009F91A0
:100200008F910F900FBE0F901F9018951F920F9215
:100210000FB60F9211248F939F9380918400909139
:100220008500829B02C0019601C0019790938500D2
:10023000809384009F918F910F900FBE0F901F901D
:100240001895CF93DF93CDB7DEB766970FB6F894C6
:10025000DEBF0FBECDBFA89A8A988B9882B38C6000
:1002600082BB8BB7806C8BBF85B78E6085BF78945F
:100270000E94AD000E94A3000E94990060E080E00F
:100280000E9492008FE19EE40197F1F700C0000008
:1002900000E010E0E12CF12C30E3632E40E2742EFC
:1002A000CC24C394D12C63E6A62EB12C78EE872EF5
:1002B0007DEF972EE114F10409F0CAC08091860009
:1002C00090918700009709F083C0989988C0909218
:1002D0008700809286008091840090918500F801CB
:1002E000EE0FFF1F21E030E02C0F3D1FE20FF31F48
:1002F000918380830115110569F44AE0BE01615FB5
:100300007F4F0E943B0261E080E00E949200CE019C
:100310000F960FC00130110589F44AE0BE01655FF8
:100320007F4F0E943B0261E083E00E949200CE0179
:100330000B960E9486000F5F1F4F51C002301105BF
:1003400071F44AE0BE01695F7F4F0E943B0261E0A9
:1003500086E00E949200CE0107960E948600898165
:100360009A814497F9F48B819C818897D9F48D8187
:100370009E81CC97B9F461E08AE00E94920080E609
:1003800090E00E9486003FEF89E698E1315080407E
:100390009040E1F700C000000E949900EE24E39431
:1003A000F12C1DC061E08AE00E94920085E690E099
:1003B0000E9486002FEF39E688E1215030408040CE
:1003C000E1F700C000000E94990000E010E007C0C3
:1003D000989B05C00196909387008093860080913A
:1003E0008400909185008436910520F0B0928500BC
:1003F000A09284008091840090918500892B21F443
:10040000D0928500C092840060E080E00E9492005B
:100410004AE0BE016D5E7F4F80918400909185001F
:100420000E943B0280918400909185000A9728F4F5
:100430008B898C8B6B8A7D8A7E8ACE0143960E9443
:10044000860060E082E00E9492008BE690E00AC0A5
:1004500091E0E916F10441F460E080E00E9492002E
:100460008BE790E00E9486008FEC97E00197F1F710
:1004700000C000001FCFBB274A3031F4992322F47B
:10048000BDE2909581959F4F0C944702BB27FB01DD
:100490005527AA27880F991FAA1FA41710F0A41B7D
:1004A00083955051B9F7A05DAA3308F0A95DA193D7
:1004B000009779F7B111B1931192CB010C946002BE
:1004C000DC01FC01672F71917723E1F7329704C0BB
:1004D0007C916D9370836291AE17BF07C8F3089546
:0404E000F894FFCFBE
:1004E4004F50454E0057524F4E47002020202020A9
:1004F40020202020202020202020004B6579626FBE
:0405040061726400BC
:00000001FF
